:020000040800F2
:100000008004002099010008110200080D02000878
:100010000F02000805020008350300080000000078
:100020000000000000000000000000007F02000847
:1000300007020008000000007D020008810200089D
:10004000B3010008B3010008B3010008B3010008C0
:10005000B3010008B301000809020008B301000859
:10006000B3010008B3010008B3010008B3010008A0
:10007000B3010008B3010008B3010008B301000890
:10008000B3010008B3010008B3010008B301000880
:10009000B3010008B3010008B3010008B301000870
:1000A000B3010008B3010008B3010008B301000860
:1000B000B3010008B3010008D5020008B30100082D
:1000C000B3010008B3010008B3010008B301000840
:1000D000B3010008B3010008B3010008B301000830
:1000E000B3010008B3010008B3010008B301000820
:1000F000B301000811030008B3010008B3010008B0
:10010000B3010008B3010008B3010008B3010008FF
:10011000B3010008B3010008B3010008B3010008EF
:10012000B3010008B3010008B3010008B3010008DF
:10013000B3010008B3010008B3010008B3010008CF
:1001400000000000000000000000000000000000AF
:10015000B3010008B3010008B3010008B3010008AF
:10016000B3010008B3010008B3010008B30100089F
:10017000B3010008B3010008B3010008B30100088F
:10018000B3010008DFF80CD000F02AF8004800475F
:10019000F50900088004002006488047064800470B
:1001A000FEE7FEE7FEE7FEE7FEE7FEE7FEE7FEE727
:1001B000FEE7FEE78502000885010008D2B201E0F3
:1001C00000F8012B491EFBD270470022F6E710B55C
:1001D00013460A4604461946FFF7F0FF204610BDB5
:1001E000064C074D06E0E06840F0010394E8070084
:1001F00098471034AC42F6D3FFF7C8FFA0130008AD
:10020000C0130008FEE7704700F0CEB8FEE7FEE737
:10021000704705EE010A80ED070A7047204602216B
:100220004A4600F0A3BF0021C0F8031001607047E8
:10023000204600212A4600F099BF000010B50B4867
:100240000B4A0C4B00210C4C00F1280CC0E90011AA
:10025000C0E90212C0E90411C0E90611C0E90811A1
:10026000C0E90D31C163ACE8160010BD1C000020D0
:1002700000004040CDCC4C3EAE47613E70477047D9
:100280007047000010B51248D0F8801041F470019A
:10029000C0F88010E8490A6842F001020A600A6862
:1002A0009207FCD54A6822F003024A604A6812F0BD
:1002B0000C0FFBD10022E14C4A600B6823400B601D
:1002C0000A634FF41F028A604FF00061016010BDA5
:1002D00008ED00E010B50C4C0121204600F097FF1E
:1002E00080B120684FF0FF3110F0700F074808BF51
:1002F000012102881144018020460121BDE81040FF
:1003000000F082BF10BD00BF0008004000000020C8
:1003100010B5074C0121204600F079FF38B100F0FC
:10032000A5FC20460121BDE8104000F06DBF10BDC6
:1003300000200040FEE77FB54FF4C01001210125E9
:1003400000F02CF900200021002600F055FA01AC45
:10035000204600F011FA40F2011002958DF8046079
:10036000ADF80C00204600F013FA032000F0E0FD89
:1003700006200021002200F0ABFD7FBDBCB508487F
:100380000121012500F00AF96C46204600F02CFA04
:1003900004482146CDE900500E4800F065FABCBD86
:1003A000020018000018000180B5052000F06CF96B
:1003B000012000F0E7F90748012100F0A9FA00B197
:1003C00080BD054804220178042908BF012202707B
:1003D00080BD00BF00080140020000209E4900F0DF
:1003E0000F000A6822F0F00242EA0010086070472D
:1003F000994900F007000A6822F4E06242EA00200E
:1004000008607047944900F007000A6822F46052BF
:1004100042EAC02008607047584901280A6822F063
:10042000300208BF30320A60704700BF042828D865
:10043000DFE800F00309121C22007F48026861F324
:1004400000020260704701F001007B490A6822F453
:10045000803242EA004007E001F0010076490A6874
:1004600022F0807242EA0060086070477248026AB7
:1004700061F30002026270476F48426A61F3000252
:1004800042627047B0B528490A68C2F38103274A1F
:10049000022B08D023BB0B6D9B0521D5CB6A9B019A
:1004A00048BF244A1CE00B680C680D68C5F3417511
:1004B000C4F383440DB90F2C02D12D01013500E0A6
:1004C00002252C44DB0301D4194A08E00B689B0386
:1004D00005D50B6DC3F301330233B2FBF3F2624374
:1004E000026015A40B68C3F30313E35C164CDA40F7
:1004F00042600B68C3F30223E35C22FA03F3C36098
:100500000B68C3F3C223E35C0424DA4082600B6807
:10051000096804EA9363C1F3813119440BA3595C60
:10052000B2FBF1F10161B0BD0410024000127A008B
:1005300000093D00006CDC0200000000000000002B
:1005400001020304060708099813000802040608BC
:10055000020C0810384A010C00F01F00895821FADB
:1005600000F000F001007047044900F003000A6841
:1005700022F4405242EA00300860704754100240B2
:100580002D490020030B0A68022B03D8013012F416
:100590000032F7D00868C0F34040704700F01F02F7
:1005A0000123000C9340244A0129815814BF994328
:1005B00019438150704700BF10B5274B1C6850B1DC
:1005C00044F4803401281C601C6814BF44F40030DB
:1005D00024F4003001E024F480301860186861F3DE
:1005E00095401860C1F30210196860F35E711960DC
:1005F000186820F0004040EAC270186010BD00BFCB
:100600000D48016841F00101016001688907FCD5CE
:10061000416821F003014160416811F00C0FFBD1EA
:100620000021064B416002681A40026001634FF4EA
:100630001F018160704700BF00100240FFFFF2FE03
:1006400005490A6860F301020A60704702480068C1
:10065000C0F38100704700BF0410024080B5042041
:1006600000F05EFD064807494FF47A720068B0FB5F
:10067000F1F01849086008685043486080BD00BF29
:100680000400002040420F00B0B51149114A322346
:100690000024050408BFB0BD85B2332D04D35568CE
:1006A00032385D434D6003E0506868434860002085
:1006B0008C600D6845F001050D600D6805F00115B1
:1006C000012DFAD00D6825F001050D608C60E0E782
:1006D00010E000E0100000201CB51C480121FFF7CD
:1006E0005DFF1B480121FFF759FFC0201C4C6946E4
:1006F00000901848019004F5823000F0B5F82046CB
:100700004FF6FF71002200F017FD2046002100F097
:1007100046FD2046002100F052FD20460321002224
:10072000002300F04EFD20460121012200F074FD5F
:10073000032000F0FDFB1E200421002200F0C8FB76
:100740002046012100F034FD1CBD00BF02001C004A
:100750000300180000280001014800F02EBD00BF72
:10076000000800400348B0F900007047014800212C
:1007700001807047000000200021416001210181BB
:100780000170704701490860704700BF14040140C0
:1007900010B5144942680B6893430B604B68934350
:1007A0004B60437AEBB10478D3431CB14C681443DB
:1007B0004C6002E00C6814430C608C681C408C6038
:1007C000CC682340CB60007A012807D018B988682C
:1007D0001043886010BD886810438860C868104363
:1007E000C86010BD00040140024A4FF6FF71C0E925
:1007F000001270470004000110B58B08032B2FD89E
:100800000C2202EA81010F228A40DFE803F0020C89
:100810001620144B88401C6824EA02021A601968EA
:100820000843186010BD0F4B88405C6824EA020240
:100830005A6059680843586010BD0A4B88409C684C
:1008400024EA02029A6099680843986010BD054B3B
:100850008840DC6824EA0202DA60D9680843D8607C
:1008600010BD00BF08000140F0B58B790A88032B4A
:100870000AD05BB94979282913D0182912BF01F091
:100880000F01026108210EE000210CE00C79C9790A
:1008900003F0080304F0040401F0030123441944A5
:1008A00001E042610821130616D000230F24002521
:1008B000082D11D022FA05F6F6070AD0076804FAC7
:1008C00003F627EA0606066001FA03F607683E43C8
:1008D000066004330135EBE7B2F5807F17D3120AC7
:1008E00000230F240025082D11D022FA05F6F60763
:1008F0000AD0476804FA03F627EA0606466001FABA
:1009000003F647683E43466004330135EBE7F0BD2C
:1009100080680840401AB0FA80F040097047000033
:100920001CB509480121FFF739FE6C462046FFF748
:100930005BFF0648214601904FF4005000900448A8
:10094000FFF792FF1CBD00BF040018000004100157
:10095000001001400248016881F4005101607047B5
:100960000C10014090ED001A90ED062A31EE401A6D
:100970009FED1C0A80ED011AB4EE401AF1EE10FA58
:100980001EDD9FED190AB4EE401AF1EE10FA17DAE7
:100990009FED160A31EE022A80ED062AB4EE402AB7
:1009A000F1EE10FA01DD114907E09FED110AB4EEF6
:1009B000402AF1EE10FA03DA0D49B0EE402A8161C7
:1009C00090ED040A90ED034A90ED023A90ED055A3D
:1009D00080ED021A20EE020A01EE040A31EE431AFB
:1009E000FFF717BC000048C30000484300409C4587
:1009F00000409CC500F00EFBFFF730FEFFF7BEFC89
:100A0000FFF799FCFFF78CFFFFF78AFF00F0E6F88D
:100A10004FF4FA6000F0D2F900204FF0000800F027
:100A2000A3F9642000F0A6F94FF47A70FFF72CFECA
:100A30001C4DDFF874A01D4E322740F247544FF092
:100A4000010985F80080C5F80480FFF783FF9AF854
:100A500000007843FFF718FE6868A04206DB4FF4F9
:100A60007A7085F80090FFF70FFE6868B04206DCE8
:100A70004FF47A7085F80080FFF706FE68682978E1
:100A800000296FF0310108BF32210844686000F08E
:100A900071F968680028D8D14FF4FA70FFF7F4FDB7
:100AA000D3E700BF0800002002000020B9FAFFFFD2
:100AB0002DE9F0418AB001AC14212046FFF785FBF7
:100AC0002046FFF7DFFC3D483D4D01210126A847A8
:100AD0003C4C01212046A847601C0121A84708ADD5
:100AE0002846FFF781FE3848F34C29460990C0207C
:100AF000089004F58230FFF7B7FE04F584302946EC
:100B00000896FFF7B1FE31480499B1FBF0F040F2CE
:100B1000E731421E204600F00FFB2046002100274F
:100B200000F03DFB2046002100F030FB06AD2846DA
:100B300000F016FC0620DFF8988000212A468DF888
:100B40001D608DF81B70ADF818002046C047214F7E
:100B5000204600210022B8471F4E204600210122D6
:100B6000B047204602212A46C047204602210022E3
:100B7000B847204602210122B047204604212A46D8
:100B8000C0472046042140F2E732B84720460421FE
:100B90000122B0472046012100F0E4FB204601215C
:100BA00000F006FB4FF4FA6000F008F90020002185
:100BB00000F084F90AB0BDE8F08100BF01001C001C
:100BC0009D050008020018000004080180969800A6
:100BD000791200086D11000831120008B0B586B016
:100BE000634C1F480025E0600020C4E9015500F077
:100BF000C1F82570FFF722FBFFF75AFFFFF76CFDE6
:100C000001AC14212046FFF7E0FA2046FFF73AFC3A
:100C100014480121FFF7C2FC029942F21070124CF5
:100C2000B1FBF0F00921421E204600F085FA204673
:100C3000002100F0B4FA20460121012200F0ECFA74
:100C4000032000F075F92D200521002200F040F965
:100C50002046012100F0ACFAFFF788FD06B0B0BDD8
:100C60000000FA4408001C0000200040B0B5384DD8
:100C7000686801306860FFF76FFD0446FFF772FD9A
:100C8000C0EB0040E969334A2044411A6861904250
:100C9000296204DBFFF76AFD296A20466C6100EED9
:100CA000101A9FED2D1AD5E90112E861B8EEC00ABD
:100CB00020EE010A9FED291A914220EE010A9FEDD4
:100CC000281A80EE010ABDEEC01A85ED060A85EDF0
:100CD000041A25D942F21172914224BF00216960A1
:100CE0000A31A9602978D9B100EE100A1D48B8EE82
:100CF000C00AFFF737FE95ED031AB4EE410AF1EE94
:100D000010FA06DCB1EE411AB4EE410AF1EE10FA27
:100D100001DAB0EE410A264800F01AF995ED060A0C
:100D2000234800F019F9BDEEC00A002110EE100AA8
:100D30000028C8BF012148BF4042B0F57A7FA8BF54
:100D40004FF47A7080B2BDE8B04000F0B7B800BF91
:100D50005C000020017FB80400007A44000070426B
:100D60000000C6441C00002001490870704700BF05
:100D70005C00002000F11902B0EE081A0C499FED4A
:100D80000B0A0CA3322A88BFB0EE401A322A81ED3A
:100D9000031A88BF04331A68800000EE100A084660
:100DA0000A61B8EEC00A00F0D3B800BF6666A63F7D
:100DB0003C000020AE47613E9A99193E4FF47A718B
:100DC00040F6E44341439842B1FBF3F23A4888BF0E
:100DD0004FF47A72042100F0C9B900BF2DE9F8433D
:100DE000344E07463078B84208BFBDE8F883324C2D
:100DF000204600F0C0FA80462046002100F0A4F909
:100E000081462046022100F09FF905462046022136
:100E1000002200F0ABF920460021002200F0A6F9E4
:100E2000707837702FB158B1FFF702FA20460221CF
:100E300004E050B1FFF7F2F920460021424609E0F4
:100E4000FFF7ECF92046002103E0FFF7F1F9204617
:100E500002210022BDE8F84300F088B92DE9F041F5
:100E6000144E0546B0F57A7F28BF4FF47A75708826
:100E7000854208BFBDE8F0810F48804600F07BFA4C
:100E80007580377876780446002E0CBF2C46461BBA
:100E900032464046002F08BF2246002100F066F986
:100EA000002F18BF2646404632460221BDE8F041D9
:100EB00000F05CB9180000200004004010B50C469A
:100EC000FFF7CCFF2046BDE81040FFF787BF0000CA
:100ED000F0B51D4B4FF0FF361C68C4F30224E51E2D
:100EE00084F0070438BF002506FA05F7BA43042C3E
:100EF00028BF042406FA04F4A143A94011430901C0
:100F0000B0F1FF3F0CDD094A831883F8001300F0AD
:100F10001F010123400903FA01F142F82010F0BD3E
:100F200000F00F0018440172F0BD00BF00E100E0C6
:100F300005494FF6FF030A681A4060F30A22034886
:100F400010430860704700BF0CED00E00000FA0598
:100F500080ED000A7047000090ED001A31EE401A53
:100F6000B9EE040AB4EE401A80ED011AF1EE10FA5F
:100F70000CDDB1EE040AB4EE401AF1EE10FA05DA17
:100F80009FED1F1A00218161C0E901119FED1D2A0B
:100F900090ED060AB4EE421AF1EE10FA1EDD9FED56
:100FA0001A2AB4EE421AF1EE10FA17DA9FED172A58
:100FB00031EE000A80ED060AB4EE420AF1EE10FAB4
:100FC00001DD124907E09FED122AB4EE420AF1EE6C
:100FD00010FA03DA0E49B0EE420A816190ED044A3C
:100FE00090ED033A90ED022A90ED055A80ED021A39
:100FF00024EE000A01EE030A31EE421AFFF709B9A6
:101000000000000000803BC500803B4500803B465F
:1010100000803BC680B5FFF7F3FA01200121FFF7FE
:1010200005FAFFF7ADFA0028FBD002203B21012290
:10103000FFF7C2FA0020FFF797FA02200121FFF71D
:10104000F5F91920FFF786FA0128FAD10020FFF7F9
:10105000C5F90420FFF7D6F90420FFF7C9F90120EC
:10106000FFF7DAF90220FFF7EBFAFFF7EFFA0228B1
:10107000FBD10020FFF7D0F9BDE88040AFF300803E
:10108000B0B51E4C1E4DFFF7E1FA022808D048BB50
:10109000286D800526D5E86A800148BF1A4C21E0FA
:1010A000286829682A68C2F34172C1F383410AB9EA
:1010B0000F2902D11201013200E002221144C003C3
:1010C00003D4104801FB00F40CE02868800301D42D
:1010D0004C4307E0286DC0F301300230B4FBF0F060
:1010E00000FB01F409480AA204602968C1F3031156
:1010F000515C24FA01F10160B0BD00BF00127A001A
:101100000410024000093D00006CDC0204000020D5
:1011100000000000000000000102030406070809A7
:10112000044904280A6822F0040208BF04320A6055
:10113000704700BF10E000E0C1628262416941F087
:1011400001014161704700000246002006290CD8C9
:10115000DFE801F0040B060B080B0A00506B704728
:10116000906B7047D06B7047106C704706290CD895
:10117000DFE801F0040B060B080B0A00426370471E
:1011800082637047C263704702647047026801F06F
:10119000030122F4407242EA0121016070470268B3
:1011A00001F0070122F0700242EA0111016070476C
:1011B000026861F3000202607047406A7047416252
:1011C000704710B5846861F302048460016A62F3B9
:1011D00041010162C2F35C01026A61F3C30202626F
:1011E0000122816962F301018161016A63F34511A2
:1011F0000162C3F35801036A61F3C7130362816993
:1012000062F30921816110BDC94301617047006922
:10121000084018BF0120704722B1012A06D1C268D8
:10122000114302E0C26822EA0101C1607047000078
:1012300006291FD8DFE801F0041E0A1E0D1E150046
:10124000082101EAC20150F8182F07E050F8181FD2
:1012500009E0082101EAC20150F81C2F22F008031E
:1012600006E050F81C1F21F4006302F00101C902DE
:101270001943016070470000F0B5537801F108048C
:10128000967803FA04F5354BA3F500649C46A0421A
:1012900002D06045634609D101F10907BE404768A5
:1012A000B6B2B743476047683E4346604668ADB252
:1012B000AE434660466835430629456027D8DFE8D7
:1012C00001F004260C2611261B001578702606EA6C
:1012D0000516054655F8187F0BE00546177855F8B2
:1012E000186F0DE01578702606EA0516054655F8C4
:1012F0001C7F27F0700708E00546177855F81C6F2B
:1013000007F0070726F4E0463F033E432E604D00FA
:10131000D67817796B1C9E40A04204D06045634686
:1013200001D0016A07E0032303EB4101036A07FAD6
:1013300001F189B21943B3B219430162A04256794F
:10134000927918BF604503D1AB1C9A4092B2114309
:1013500006FA05F292B211430162F0BD0034014079
:10136000FEF761BF026801F0010122F0800242EA4B
:10137000C11101607047C06A704702E008C8121FBF
:1013800008C1002AFAD170477047002001E001C16E
:10139000121F002AFBD17047000000000102030465
:1013A000C013000800000020080000007A130008A5
:1013B000C813000808000020780400008A13000801
:0813C000FFFF010000127A009A
:040000050800018569
:00000001FF
