:020000040800F2
:10000000C007002039020008EB150008371400086B
:10001000E91500082F0400080D1900080000000071
:10002000000000000000000000000000571600085B
:100030003104000800000000551600085916000899
:10004000530200085302000853020008530200083C
:10005000530200085302000853020008530200082C
:10006000530200085302000853020008530200081C
:10007000530200085302000853020008530200080C
:100080005302000853020008530200080000000059
:100090000000000000000000000000005302000803
:1000A0005302000853020008FD160008530200081E
:1000B0005302000853020008091700085302000801
:1000C00053020008530200085302000853020008BC
:1000D0005302000853020008530200080000000009
:1000E00053020008530200085302000800000000F9
:1000F00000000000000000000000000053020008A3
:1001000000000000530200085302000853020008D8
:1001100000000000000000000000000000000000DF
:10012000530200085302000853020008530200085B
:100130005302000800000000000000000000000062
:100140000000000000000000000000005302000852
:10015000530200085302000853020008530200082B
:1001600053020008530200080000000000000000D5
:10017000000000000000000000000000000000007F
:100180000000000053020008000000000000000012
:10019000530200085302000800F002F800F03CF897
:1001A0000AA090E8000C82448344AAF10107DA45D2
:1001B00001D100F031F8AFF2090EBAE80F0013F0E8
:1001C000010F18BFFB1A43F001031847241D00005C
:1001D000441D0000103A24BF78C878C1FAD85207ED
:1001E00024BF30C830C144BF04680C6070470000B1
:1001F0000023002400250026103A28BF78C1FBD830
:10020000520728BF30C148BF0B6070471FB501F0CF
:100210005DFE1FBD10B510BD00F0CFF81146FFF711
:10022000F5FF01F0FFFB00F0EDF803B4FFF7F2FF7C
:1002300003BC00F0F5F80000094880470948004772
:10024000FEE7FEE7FEE7FEE7FEE7FEE7FEE7FEE786
:10025000FEE7FEE704480549054A064B70470000E3
:10026000ED16000899010008C0010020C007002019
:10027000C0030020C003002053EA020C00F0698094
:100280002DE9F04B4FF00006002B1FBFB3FA83F5AA
:1002900003FA05F424FA05F65E4012BF1643B2FADB
:1002A00082F502FA05F4C5F120051EBF22FA05FC0D
:1002B00044EA0C04203556EA044C4FEA144418BFB3
:1002C000641C4FF000084FF00009904271EB030CE2
:1002D00039D3002919BFB1FA81F701FA07F6B0FA4C
:1002E00080F700FA07F6C7F120071EBF20FA07FCC7
:1002F00046EA0C062037B6FBF4FCA7EB0507103FD7
:1003000007F01F0BCBF120060CFA0BFB2CFA06F6BC
:1003100044BFB3460026202FA4BF5E464FF0000B1B
:100320005BEA060C08BF4FF0010B19EB0B09ABFBA6
:10033000027C48EB0608C01B06FB02CC0BFB03CC7F
:1003400071EB0C01C1E70B46024641464846BDE849
:10035000F08B13B54FF000004FF00001AFF30080B9
:10036000BDE81C4070474FF0000200B513469446AC
:100370009646203922BFA0E80C50A0E80C50B1F1FD
:100380002001BFF4F7AF090728BFA0E80C5048BF11
:100390000CC05DF804EB890028BF40F8042B08BFAF
:1003A000704748BF20F8022B11F0804F18BF00F8AB
:1003B000012B7047704770477047754600F02CF866
:1003C000AE4605006946534620F00700854618B042
:1003D00020B5FFF73FFFBDE820404FF000064FF08B
:1003E00000074FF000084FF0000B21F00701AC466A
:1003F000ACE8C009ACE8C009ACE8C009ACE8C00989
:100400008D46704710B50446AFF300802046BDE826
:100410001040FFF70ABF0000004870475C01002051
:1004200001491820ABBEFEE7260002007047FEE738
:10043000704772B6FEE7000070B5044600F00CF994
:100440000546601C02D004480078044400F004F91A
:10045000401BA042FAD370BD080000202DE9F84FE0
:10046000DFF8B8A10022012403254FF00F090AF19B
:10047000040BAAF1040E00BF0B6804FA02F6334025
:10048000B34273D10F7907F00307012F01D0022F78
:1004900016D187684FEA420805FA08FC27EA0C07DC
:1004A000D1F80CC00CFA08FC4CEA070CC0F808C0E4
:1004B0004768B7430E79C6F3001696403E43466040
:1004C0000E79F643B6070DD0C768560005FA06FC4C
:1004D00027EA0C07D1F808C00CFA06FC4CEA070C16
:1004E000C0F80CC00E7906F00306022E10D1D60813
:1004F00000EB8608D8F8206057074FEAD76C09FA56
:100500000CF7BE430F6907FA0CF73743C8F82070A1
:1005100006684FEA420C05FA0CF7BE430F7907F064
:10052000030707FA0CF7374307604E6816F4403F9D
:100530006DD03B4E376847F480473760366822F00D
:10054000030706F480460096364E07EB060CDCF8EF
:10055000086897073F0F09FA07F826EA0806DFF848
:10056000C880404503D14FF000081EE04FE0DFF89F
:10057000BC80404502D14FF0010816E0DFF8B080A2
:10058000404502D14FF002080FE0DFF8A880404557
:1005900002D14FF0030808E0DFF89C80404502D10B
:1005A0004FF0040801E04FF0070808FA07F848EA9E
:1005B0000608CCF80888DAF800605746D1F804C07D
:1005C0009E435FEACC2C00D51E433E60DBF8006002
:1005D0005F46D1F804C09E435FEA8C2C00D51E43D1
:1005E0003E60DEF800607746D1F804C09E435FEAC3
:1005F0008C3C00D51E433E60084F083F3E68D1F852
:1006000004C09E435FEACC3C00D51E433E60521CB2
:10061000102AFFF431AFBDE8F88F0000083C01401C
:100620004438024000300140000002400004024013
:1006300000080240000C024000100240426921EA1A
:1006400002030A4043EA0241816170470AB18161B5
:1006500070470904FBE7000001488068704700000C
:1006600008000020024881680278114481607047C8
:10067000080000200B4810B5016841F400710160CA
:10068000016841F480610160016841F4807101609A
:10069000032000F06FF80F2000F006F800F024F8B7
:1006A000002010BD003C024070B50D4D04464FF4D3
:1006B0007A712878B1FBF0F00A490968B1FBF0F0D3
:1006C00000F00CFB48B9102C07D200222146501E26
:1006D00000F030F800206C6070BD012070BD00009B
:1006E00008000020140000200A4808B5016841F401
:1006F00080410160006800F4804000900548001FC0
:10070000016841F080510160006800F08050009065
:1007100008BD000044380240002809DB00F01F0239
:10072000012191404009800000F1E020C0F8001153
:1007300070470000F0B40E4B1B680C46C3F3022355
:10074000C3F10705042D00D90425191D072901D27D
:10075000002300E0DB1E012606FA05F1491E2140B8
:1007600099409E40761E16403143F0BC01F0CFB850
:100770000CED00E0064900F0070208684FF6FF03A1
:10078000184040EA0220034A104308607047000006
:100790000CED00E00000FA052DE9F0470E460500DB
:1007A00065D0DFF81481D8F80000F7B200F0070038
:1007B000B04207D288F80070D8F8000000F00700B7
:1007C000B04254D128683D4C810712D5400703D56B
:1007D000206840F4E05020602878000703D52068A6
:1007E00040F4604020602068A96820F0F0000843D1
:1007F00020602878C0072DD0304968680839012862
:1008000012D0022813D0032811D0096889070029C3
:100810002DDA216821F0030101432160FFF71CFF5D
:10082000814641F2883A0EE009688903EFE70968DA
:100830008901ECE7FFF710FFA0EB0901514502D950
:100840000320BDE8F0872068696800F00C00B0EB79
:10085000810FEFD1D8F80010404601F00701B142F6
:1008600007D90770006800F00700B04201D00120EE
:10087000E7E72878400705D52068E96820F4E050CC
:10088000084320602878000706D52068296920F4ED
:10089000604040EAC100206000F038F82168084A52
:1008A000C1F30311515CC84006490860064800685E
:1008B000FFF7FAFE0020C4E7003C0240083802407F
:1008C000D61E0008140000200C0000200448054932
:1008D00000680968044AC1F38221515CC84070472E
:1008E0001400002008380240E61E000804480549AC
:1008F00000680968044AC1F34231515CC84070473E
:100900001400002008380240E61E0008154810B503
:10091000006810F00C02144813D01449042A0FD0B8
:10092000082A0ED10F4C241F2268236802F03F02D0
:100930005B0207D52068C0F38810A0FB010106E028
:10094000084610BD2168C1F38811A1FB00010023F6
:10095000FFF792FC2168C1F30141491C4900B0FB3B
:10096000F1F010BD083802400024F40040787D0109
:100970002DE9F84F04006ED02078DFF84C93C007C3
:10098000A9F104054AD009F104000168C1F381010D
:10099000012908D00068C0F3810002280AD1D9F8E3
:1009A0000000400206D52868800337D5606800281B
:1009B000E1D033E06068B0F5803F10D0B0F5A02FF3
:1009C000286810D020F480302860286820F4802027
:1009D00028606068A8B1FFF73FFE06460DE0286872
:1009E00040F48030F4E740F480202860F7E700BF4F
:1009F000FFF732FE801B642873D828688003F7D580
:100A00000CE0FFF729FE064605E000BFFFF724FED5
:100A1000801B6428F0D828688003F7D42078DFF89A
:100A2000AC8280074FF0000A3ED5A748001D016840
:100A300011F00C0F08D00068C0F3810002280BD120
:100A4000D9F80000400207D42868800716D5E0686E
:100A5000012800D112E033E1E068B8B10120C8F804
:100A60000000FFF7F9FD064605E000BFFFF7F4FDC3
:100A7000801B0228C0D828688007F7D5286821691C
:100A800020F0F80040EAC10028600DE0C8F800A09E
:100A9000FFF7E2FD064604E0FFF7DEFD801B0228BB
:100AA0001FD828688007F7D42078000722D5864F02
:100AB00087486169703771B101210160FFF7CCFD92
:100AC000064604E0FFF7C8FD801B022809D83868F5
:100AD0008007F7D50EE0C0F800A0FFF7BDFD064681
:100AE00005E082E0FFF7B8FD801B02287DD838685A
:100AF0008007F7D42078400768D5DFF8CCB100270D
:100B00000BF13C0BDBF80000C0000BD4DBF800104D
:100B100041F08051CBF80010DBF80000012700F015
:100B2000805000906B4E3068C00510D4306840F49F
:100B300080703060FFF790FD009005E0FFF78CFDBE
:100B40000099401A022850D83068C005F6D55E4E8C
:100B5000A0686C3601280FD00528306810D020F02E
:100B600001003060306820F004003060A068B8B147
:100B7000FFF772FD00900FE0306840F00100F4E7ED
:100B800040F004003060F7E7FFF766FD0099411A76
:100B900041F28830814266D830688007F4D50EE093
:100BA000FFF75AFD009007E0FFF756FD0099411A44
:100BB00041F28830814256D830688007F4D42FB192
:100BC000DBF8001021F08051CBF80010A069C8B309
:100BD0003D49091D0968C1F3810102294AD0022853
:100BE000504607D0C8F8600000E03CE0FFF734FD55
:100BF00004463BE04746C8F86000FFF72DFD064677
:100C000005E000BFFFF728FD801B02282BD82868CD
:100C10008001F7D4D4E907010843A16A2E4A4908A4
:100C200002EB0141626A41EA8211084394F82C10F8
:100C300040EA0161C9F8001001203866FFF70CFD99
:100C4000044606E03EE000BFFFF706FD001B022859
:100C500009D828688001F7D534E000BFFFF7FCFC15
:100C6000001B022802D90320BDE8F88F2868800104
:100C7000F4D427E00128F7D0D9F80000E26900F4A5
:100C8000800191421CD1226A00F03F01914217D1AC
:100C900047F6C071626A0140B1EB821F10D1A26AAF
:100CA0004FF0FF3300F4403103EB5202B1EB024F3F
:100CB00006D194F82C1000F07060B0EB016F01D0F9
:100CC0000120D1E70020CFE704380240000047426E
:100CD000800E4742007000400000FFFF10B5401E2C
:100CE000B0F1807F01D3012010BD4FF0E02460619E
:100CF0000F21601700F00BFE0020A061072020618B
:100D0000002010BD7047704770B590F83C20012A54
:100D10002CD0012480F83C40022280F83D2003685A
:100D20005A689D6822F070060A6832435A60104B78
:100D300002689A420ED0B2F1804F0BD00D4B9A420E
:100D400008D00D4B9A4205D00C4B9A4202D00C4B66
:100D50009A4204D1496825F080031943916080F8D4
:100D60003D40002180F83C10084670BD022070BD57
:100D7000000001400004004000080040000C00405A
:100D80000040014010B5040003D094F83D0010B1BC
:100D900007E0012010BD002084F83C00204600F050
:100DA0001FF8022084F83D00211D206800F0B2FCED
:100DB000012084F8460084F83E0084F83F0084F85F
:100DC000400084F8410084F8420084F8430084F82D
:100DD000440084F8450084F83D00002010BD000068
:100DE00008B500680B49884212D10B48016841F4EC
:100DF000802101600068002200F48020009006211C
:100E00001A20FFF797FCBDE808401A20FFF784BCC2
:100E100008BD0000004801404438024090F83D10F1
:100E2000012901D001207047022180F83D1001689E
:100E3000CA6842F00102CA6000680E4988420ED0BA
:100E4000B0F1804F0BD00C49884208D00B49884242
:100E500005D00B49884202D00A49884204D18168F2
:100E600001F00701062903D0016841F0010101608A
:100E700000207047000001400004004000080040CE
:100E8000000C0040004001402DE9F0410D460400F7
:100E900003D094F83D0018B108E00120BDE8F081CE
:100EA000002084F83C00204600F040F8022084F83E
:100EB0003D002068816844F2070291438160211D52
:100EC000206800F027FC226890689169166A2B68F8
:100ED000AF69034340F20330814341EA0721A86828
:100EE000EF6908434FF6FC418843E96840EA072070
:100EF000014328692F6A000140EA07300843696806
:100F00006D6926F0AA0646EA051529439360226812
:100F1000906154F8460B0162012004F81F09E07546
:100F20002076E0762077A0750020B7E710B586B070
:100F3000044614216846FFF716FA164920688842CD
:100F400026D115480021026842F0040202600068C0
:100F500000F00400059010481038026842F00202C8
:100F60000260006800F002000590C020009002209E
:100F7000CDE90101CDE9031069460848FFF76EFA93
:100F8000002205211E20FFF7D5FB1E20FFF7C4FB22
:100F900006B010BD00080040403802400004024086
:100FA00070B590F83E60044690F83F5090F842309B
:100FB00090F84320022021B104290ED0012E1BD12C
:100FC00014E0012E18D1012B16D184F83E0084F8CC
:100FD000420001220021206820E0012D0CD1012ACD
:100FE0000AD184F83F0084F8430014E0012D03D1B6
:100FF000012B01D1012A01D0012070BD84F83E00EF
:1010000084F83F0084F8420084F843000122002164
:10101000206800F0CBFB01220421206800F0C6FB11
:101020002068016841F001010160002070BD704737
:1010300070B50446006801694FF00005C94389078F
:1010400015D4C168C943890711D4E91E0161012083
:101050002077206880698007204602D0FFF7E7FFED
:1010600004E000F0D5F8204600F07AF925772068F2
:101070000169C943490717D4C168C943490713D453
:101080006FF004010161022020772068806910F46C
:10109000407F204602D0FFF7CAFF04E000F0B8F816
:1010A000204600F05DF9257720680169C9430907EA
:1010B00016D4C168C943090712D46FF00801016151
:1010C000042020772068C0698007204602D0FFF7FF
:1010D000AEFF04E000F09CF8204600F041F92577CF
:1010E00020680169C943C90617D4C168C943C90644
:1010F00013D46FF010010161082020772068C069C7
:1011000010F4407F204602D0FFF791FF04E000F08A
:101110007FF8204600F024F9257720680169C9434B
:10112000C90708D1C168C943C90704D1891E016133
:10113000204600F06FF920680169C943090609D407
:10114000C168C943090605D46FF0800101612046DA
:10115000FFF7D8FD20680169C943490609D4C16871
:10116000C943490605D46FF040010161204600F0F3
:1011700061F920680169C94389060BD4C168C94374
:10118000890607D46FF0200101612046BDE8704058
:10119000FFF7B9BD70BD000030B587B0044614211B
:1011A0006846FFF7E0F816492068884226D11548BE
:1011B0000024016841F001010160016801F00101B2
:1011C0000591016841F0020101600068022500F00C
:1011D00002000590C0200090CDE9015469460A48FC
:1011E000CDE90345FFF73AF901200090CDE901541C
:1011F00069460648CDE90345FFF730F907B030BD31
:101200000004004030380240000002400004024068
:10121000704770B5044690F83C0000260D46012842
:101220000FD0012084F83C006AB1042A1DD0082A9E
:101230002FD00C2A3FD00126002084F83C003046F5
:1012400070BD022070BD206800F0BEFA2068816980
:1012500041F0080181612068816921F00401816108
:10126000206881692A69114311E0206800F0D4FAEE
:101270002068816941F4006181612068816921F4FD
:1012800080618161206881692A6941EA0221816166
:10129000D2E7206800F0ECFA2068C16941F008014B
:1012A000C1612068C16921F00401C1612068C16980
:1012B0002A69114311E0206800F006FB2068C1692B
:1012C00041F40061C1612068C16921F48061C1619C
:1012D0002068C1692A6941EA0221C161ACE710B501
:1012E000040003D094F83D0010B107E0012010BDC8
:1012F000002084F83C00204600F01EF8022084F80C
:101300003D00211D206800F005FA012084F8460008
:1013100084F83E0084F83F0084F8400084F84100DF
:1013200084F8420084F8430084F8440084F84500BF
:1013300084F83D00002010BD08B5006806498842C9
:1013400008D10648016841F002010160006800F020
:101350000200009008BD0000000400404038024038
:101360007047000010B50446022249B104290ED08E
:10137000082913D094F84100012816D0012010BD8F
:1013800094F83E000128F9D184F83E200FE094F84B
:101390003F000128F2D184F83F2008E094F8400093
:1013A0000128EBD184F8402001E084F8412001229B
:1013B000206800F0FBF912492068884203D1426C92
:1013C00042F400424264206888420ED0B0F1804F5F
:1013D0000BD00C49884208D00B49884205D00B49F4
:1013E000884202D00A49884204D1816801F007018D
:1013F000062903D0016841F001010160002010BD01
:10140000000001400004004000080040000C0040C3
:101410000040014000680549884201D100F0A0BAAF
:101420000349884201D100F0E9BB70470008004041
:10143000004801407047FEE770B586B01421684649
:10144000FEF791FF1A480024016841F00401016091
:10145000016801F004010591016841F0800101601B
:10146000016801F080010591016841F0010101600E
:10147000016801F001010591016841F0020101607C
:1014800000680C4E00F002004FF400550590002259
:1014900029463046FFF7DAF801200095CDE901042E
:1014A000694630460394FEF7D9FF06B070BD0000D0
:1014B00030380240000802400B4810B5094901606D
:1014C00000214FF6FF724160C0E9021201618161A3
:1014D000FFF758FC002803D0BDE81040FEF7A9BF75
:1014E00010BD000000480140D400002010B58AB0B3
:1014F000002407941C2168460894FEF734FF1E4818
:101500001C49C0E900144FF6FF71C0E902410461B3
:101510008461FFF7E4FE08B1FEF78BFF079407A98B
:1015200015480894FFF7F0FB08B1FEF782FF602032
:10153000CDE900040294002269460F480494FFF7A5
:1015400068FE08B1FEF775FF042269460A48FFF7F6
:1015500060FE08B1FEF76DFF082269460648FFF7F6
:1015600058FE08B1FEF765FF0348FFF715FE0AB005
:1015700010BD0000000400404400002010B58CB0F5
:1015800024216846FEF7EFFE00241648099414490A
:101590000A94C0E900144FF6FF71C0E902410461EA
:1015A00084610320CDE900040120CDE90204042177
:1015B0000491CDE90540CDE9074169460948FFF7A7
:1015C00063FC08B1FEF735FF099409A905480A94A0
:1015D000FFF79AFB002801D0FEF72BFF0CB010BDDF
:1015E000000800408C000020FEE7FEE716489FED53
:1015F000150AF0EE080A80ED000A80ED070A80ED7A
:10160000010A80ED020A80ED060AC0ED030A80EDB2
:10161000040A80ED050A203080ED000A80ED070AFB
:1016200080ED010A80ED020A80ED060A9FED070AAF
:10163000C0ED030A80ED040A9FED050A80ED050A5E
:1016400070470000000000001C010020AE47613E12
:10165000CDCC4C3E70477047FFF704B830B593B01F
:1016600030216846FEF77FFE14210CA8FEF77BFEB2
:101670001C480025016841F080510160006800F0BD
:10168000805011901848016841F4404101600068A1
:10169000022400F4404011900120009000040190C9
:1016A0008001CDE906400C2008906020CDE90904B6
:1016B00004200B906846FFF75BF908B172B6FEE7AD
:1016C0000CA90F2081E831004FF48050CDE90F05BF
:1016D00003210CA8FFF760F8002801D072B6FEE7DE
:1016E00013B030BD4038024000700040024801682D
:1016F00041F470010160704788ED00E00148FFF798
:1017000097BC0000D40000200148FFF791BC000006
:101710008C000020F0B502681D4B1E4C9F031E4D2F
:101720001E4E984207D0B84205D0A04203D0A8422E
:1017300001D0B04204D122F0700C4A6842EA0C0297
:10174000984210D0B8420ED0A0420CD0A8420AD085
:10175000B04208D0124CA04205D0124CA04202D098
:10176000114CA04203D122F44074CA6822434C6950
:1017700022F08002224302608A68C2620A688262A2
:10178000984201D10969016301214161F0BD000066
:10179000000001400004004000080040000C004030
:1017A00000400140004401400048014010B501F0F4
:1017B0001F030121046A99408C430462016A9A4024
:1017C0001143016210BD000030B5026A22F001022F
:1017D0000262026A4368846924F073050C682C4332
:1017E00022F002058A682A430A4DA8420BD122F052
:1017F0000805CA6823F440732A434D6922F00402A5
:101800001D438B692B4343608461496841630262D5
:1018100030BD00000000014030B5026A22F0100225
:101820000262026A436884690D6824F4E64444EA6B
:1018300005248D6822F0200242EA05120B4DA842D1
:101840000ED1CD6822F0800242EA05124D6923F4E0
:10185000406343EA85038D6922F0400243EA850331
:101860004360846149688163026230BD00000140C9
:1018700030B5026A22F480720262036A4268C46967
:1018800023F4007324F073050C682C438D6843EA3D
:1018900005230C4DA8420ED1CD6823F4006343EA22
:1018A00005234D6922F4405242EA05128D6923F462
:1018B000806342EA05124260C4614968C163036201
:1018C00030BD00000000014030B5026A22F48052B1
:1018D0000262046A4268C3690D6823F4E64343EA7E
:1018E00005238D6824F4005444EA0534064DA842CB
:1018F00004D14D6922F4804242EA85124260C361FC
:1019000049680164046230BD00000140FEE7090738
:10191000090E002804DB00F1E02080F80014704775
:1019200000F00F0000F1E02080F8141D7047000067
:1019300010B53C210348FFF733FBBDE810400148D8
:10194000FFF76CBA8C00002001480068406A7047BD
:101950008C0000200148B0F90000704718000020FA
:101960000648006800680649C206B1F9000001D5C2
:10197000401E00E0401C0880704700008C000020E2
:10198000180000200149002008807047180000203E
:10199000D0ED000A1D4A70EEC00A10EE901AC0ED9C
:1019A000010A91421BD210EE901A194A914216DA9E
:1019B00090ED060A174A30EE200A10EE101A80ED5C
:1019C000060A914202DD9FED140A06E010EE101A9D
:1019D000124A914203D99FED120A80ED060A90ED5A
:1019E000030A90ED041AD0ED061A20EE200A01EE4B
:1019F000210A90ED021AD0ED051A30EEC11A01EE5F
:101A0000810A80ED070AC0ED020A7047000048C352
:101A10000000484300409C4500409C4500409CC558
:101A200000409CC5FEF726FEFFF718FEFFF704FDF9
:101A3000FFF75CFDFFF7A2FDFFF73EFD00F078F831
:101A40004FF4FA6000F066F9002000F035F96420E8
:101A500000F038F94FF47A742046FEF7EDFCA14609
:101A600040F246550127174C4FF4005B6E424FF091
:101A700000084FF4FA7A59461348FEF7DFFD31208B
:101A8000FEF7DAFC6068A84203DD27704846FEF7DF
:101A9000D3FC6068B04204DA84F800804846FEF760
:101AA000CBFC20780028606801D0323800E032306A
:101AB000606000F007F960680028DCD15046FEF74E
:101AC000BBFCD8E7000000200008024070B5164CAF
:101AD00040F2E7352068C562E560FEF7F7FE13497E
:101AE000B0FBF1F02168401E886221680020486345
:101AF000216888632168CD632168486201462046D9
:101B0000FFF730FC04212046FFF72CFC082120467B
:101B1000FFF728FC4FF4FA6000F0FCF8BDE87040D5
:101B20000021084600F062B9440000208096980029
:101B300070B5144D00244FF4FA706C60AC6000F086
:101B4000AFF8002000F0BEF82C70FFF74FFDFFF754
:101B5000BDFFFFF7EDFE0C4D09202968C862E86063
:101B6000FEF7C4FE42F21071B0FBF1F02968401E8E
:101B70008862286844622846FFF750F9BDE8704043
:101B8000FFF700BF20000020D400002070B5FFF751
:101B9000DBFE0546FFF7DEFE134CC0EB0040284499
:101BA00020616169411AA1611049884202DDFFF795
:101BB000E9FE256194ED060ADFED0D0A9FED0E1A90
:101BC000B8EEC00A20EE200ADFED0A0A60EE200A15
:101BD00080EE810A84ED070ABDEEC00A84ED080A92
:101BE0002069606170BD000020000020007FB80403
:101BF00000007A44000070420000C64410B5254C35
:101C00006068401C6060FFF7C1FFD4E901018842B1
:101C100025D942F21071884201D9002060600A3053
:101C2000A0602078D8B194ED040A1B48B8EEC00A31
:101C3000FFF7AEFED4ED030AB4EEE00AF1EE10FABF
:101C400008DCB0EE401AF1EE600AB4EEE01AF1EEF4
:101C500010FA01D2B0EE600A104800F0D0F894ED0E
:101C6000070A0E4800F0CEF8BDEEC00A10EE100ACA
:101C700000B2002801DD012101E0002140424FF4C3
:101C80007A72904200DD1046BDE8104080B200F04C
:101C9000ADB80000200000201C0100203C01002005
:101CA000800000EE100A0348B8EE400A80ED030AF7
:101CB00070470000200000200149087070470000B4
:101CC000200000209FED0F0ADFED0F0A0F491928B1
:101CD00002DC10F1190F04DA81ED030AC1ED040AE8
:101CE00007E0B0EE080A81ED030A9FED090A81EDD5
:101CF000040A800000EE100A0448B8EEC00A00F0A2
:101D00007EB800006666A63F9A99193E3C01002005
:101D1000AE47613E40F6E4420849904202D94FF492
:101D20007A7004E04FF47A735843B0FBF2F0888085
:101D3000034980B20968C863704700001A00002098
:101D400044000020F0B5124B5978884210D0114958
:101D50000C68E66A676BA56B0022A2630C6862637D
:101D600058701B7828B108686BB1456308688663B2
:101D7000F0BD08681BB1876308684663F0BD456322
:101D800008688263F0BD876308684263F0BD0000A5
:101D90001A00002044000020F0B54FF47A71884208
:101DA00000D908460F4B598888420CD00E490A6862
:101DB000D46A58805F78251A1B78002627B163B152
:101DC000556308688463F0BD1BB15463086885637C
:101DD000F0BD506308688663F0BD56630968886388
:101DE000F0BD00001A0000204400002010B50C4691
:101DF000FFF7D2FF2046BDE81040FFF7A3BF80EDFC
:101E0000000A7047D0ED000A274A30EEC00A10EEF3
:101E1000101A80ED010A91420CD210EE101A234ADA
:101E2000914207DA9FED220A80ED010A80ED060A51
:101E300080ED020AD0ED010A1E4A10EE901A91427E
:101E40001BD210EE901A1C4A914216DA90ED060A47
:101E50001A4A30EE200A10EE101A80ED060A91425E
:101E600002DD9FED170A06E010EE101A154A9142A6
:101E700003D99FED150A80ED060A90ED030A90ED57
:101E8000041AD0ED061A20EE200A01EE210A90ED88
:101E9000021AD0ED051A30EEC11A01EE810A80ED6A
:101EA000070AC0ED020A70470000A0C00000A04071
:101EB0000000000000803BC500803B4500803B46A1
:101EC00000803B4600803BC600803BC64FF0407020
:101ED000E1EE100A7047000000000000000001025F
:101EE00003040607080900000000010203040000C3
:101EF000101F00080000002044000000D40100086A
:101F0000541F0008440000207C070000F001000876
:101F100000000000000000000100000010000000B0
:101F2000000000000024F400FFFF000000005E023B
:101F300000000000000000000000000000000000A1
:101F40000000000000000000000000000000000091
:041F5000000000008D
:040000050800019955
:00000001FF
